:107800000C94343C0C94513C0C94513C0C94513CE1
:107810000C94513C0C94513C0C94513C0C94513CB4
:107820000C94513C0C94513C0C94513C0C94513CA4
:107830000C94513C0C94513C0C94513C0C94513C94
:107840000C94513C0C94513C0C94513C0C94513C84
:107850000C94513C0C94513C0C94513C0C94513C74
:107860000C94513C0C94513C11241FBECFEFD8E036
:10787000DEBFCDBF11E0A0E0B1E0ECEEFDE702C05D
:1078800005900D92A230B107D9F722E0A2E0B1E055
:1078900001C01D92AD30B207E1F70E94063D0C9485
:1078A000DD3E0C94003C9091C00095FFFCCF80938E
:1078B000C6000895CF93C82F8595859585958595A4
:1078C000805DCF70CA303CF0C95A0E94533C8C2F67
:1078D000CF910C94533CC05DF8CFCF92DF92EF92E2
:1078E000FF92C12CD12C76018091C00087FF07C088
:1078F0008091C600FF90EF90DF90CF9008958FEFBA
:10790000C81AD80AE80AF80A81E2C81681EAD80635
:1079100087E0E806F10440F3E0910201F0910301F1
:107920000995E2CFCF930E946D3CC82F0E94533C33
:10793000C13624F0C7558C2FCF910895C033DCF3A6
:10794000C053F9CFCF930E94923CC82F0E94923C23
:10795000C295C07F8C0FCF910895CF93C82FC111CE
:1079600002C0CF9108950E946D3CC150F8CFCF93D3
:10797000C82F0E946D3C803251F484E10E94533C38
:107980008C2F0E94533C80E1CF910C94533C80910A
:1079900004018F5F80930401853031F4E09102018E
:1079A000F0910301CF910994CF9108950E946D3C0D
:1079B000803231F484E10E94533C80E10C94533CCA
:1079C000809104018F5F80930401853029F4E09158
:1079D0000201F091030109940895811101C00895F5
:1079E0002D9A2FEF30E792E0215030409040E1F7A0
:1079F00000C000002D982FEF30E792E0215030407A
:107A00009040E1F700C000008150E7CF0000E0E0C7
:107A1000F0E0E49182E08093C00080E18093C400B4
:107A20001092C50088E18093C10086E08093C20077
:107A30005098589A259A81E00E94ED3C0E946D3C36
:107A4000E82F803319F40E94D63CF8CF8735E4F450
:107A5000803484F4813309F471C0809104018F5F14
:107A600080930401853051F7E0910201F091030108
:107A70000995E4CFE054E73180F70E2E000CFF0BA0
:107A8000E152F14C0C94D73E853709F480C10CF0DB
:107A900050C0843609F4B5C08437F9F60E946D3CB5
:107AA00080930A020E946D3C8093090280910B0230
:107AB00090910C02880F991F90930C0280930B02F7
:107AC0000E946D3C91E0853409F090E080910802BD
:107AD00090FB80F9809308020E946D3C803209F08F
:107AE000ADCF84E10E94533C00E010E08091090298
:107AF00090910A0208171907F0F580910802E091A9
:107B00000B02F0910C0280FF3EC1F999FECFF2BD4D
:107B1000E1BDF89A80B50E94533C80910B02909190
:107B20000C02019690930C0280930B020F5F1F4F83
:107B3000DDCF863709F091CF80E02EC00E946D3CEA
:107B4000803209F08ACF84E10E94533C81E40E9494
:107B5000533C86E50E94533C82E50E94533C80E200
:107B60000E94533C89E40E94533C83E50E94533CAD
:107B700080E50E94533C80E10E94533C5FCF0E940D
:107B80006D3C863808F45FCF0E946D3C5CCF0E944C
:107B90006D3C803821F482E00E94B73C4FCF8138A1
:107BA00011F481E0F9CF823811F480E1F5CF883902
:107BB00019F683E0F1CF84E10E94AD3C44CF85E02B
:107BC000FBCF0E946D3C80930B020E946D3C809322
:107BD0000C0239CF0E946D3C803379F40E946D3CD9
:107BE0000E946D3CD82F0E946D3C8EE1DD23A1F2F6
:107BF00085E9D13089F28FE0CFCF83E00E94AD3CA0
:107C00009BCF0E946D3C80930A020E946D3C809342
:107C10000902809108028E7F809308020E946D3CC9
:107C2000853429F48091080281608093080208E07D
:107C300011E06801E12CF12C8091090290910A0277
:107C4000E816F906F0F00E946D3C803209F005CF8D
:107C50002091080280910B0290910C0220FF2CC011
:107C6000880F991F20E030E090930C0280930B0264
:107C70004091090250910A022417350758F084E117
:107C800078CF0E946D3CF60181936F01FFEFEF1AF0
:107C9000FF0AD2CFF999FECF92BD81BDF801819143
:107CA0008F0180BDFA9AF99A80910B0290910C0293
:107CB00001962F5F3F4FD8CF20910C02221F222721
:107CC000221F20930701880F991F90930C02809325
:107CD0000B028091090280FF09C0809109029091F6
:107CE0000A02019690930A0280930902F894F99986
:107CF000FECF1127E0910B02F0910C02C8E0D1E019
:107D00008091090290910A02103091F4009157007D
:107D100001700130D9F303E000935700E89500911A
:107D2000570001700130D9F301E100935700E89545
:107D3000099019900091570001700130D9F301E0CA
:107D400000935700E8951395103498F0112700918F
:107D5000570001700130D9F305E000935700E89512
:107D60000091570001700130D9F301E100935700F1
:107D7000E8953296029709F0C7CF103011F00296BD
:107D8000E5CF11247CCF81FDC8CE8491C4CE0E9462
:107D90006D3C803209F061CE84E10E94533C8EE15B
:107DA0000E94533C85E90E94533C8FE0E2CEEE0FE7
:107DB000FF1F0590F491E02D0994F894FFCFBF3D8B
:107DC000C73DDB3D2D3D2D3DDF3D2D3D2D3D2D3D69
:107DD0002D3D2D3D2D3D2D3D2D3D2D3D2D3D233D5D
:0C7DE000233D233D2D3D2D3DE13DEA3DBE
:027DEC00800015
:040000030000780081
:00000001FF
